:100000000C9464000C948C000C948C000C948C0068
:100010000C948C000C948C000C948C000C948C0030
:100020000C948C000C948C000C948C000C948C0020
:100030000C948C000C9477010C948C000C948C0024
:100040000C9437020C948C000C942A050C945C05DB
:100050000C948C000C948C000C948C000C948C00F0
:100060000C948C000C948C0000000008000201002D
:100070000003040700000000000000000102040863
:100080001020408001020408102001020408102002
:10009000040404040404040402020202020203032E
:1000A00003030303000000002300260029000000D2
:1000B0000000250028002B0000000000240027007D
:1000C0002A008E00DF008C0511241FBECFEFD8E080
:1000D000DEBFCDBF11E0A0E0B1E0E8E2F1E102C097
:1000E00005900D92A433B107D9F722E0A4E3B1E063
:1000F00001C01D92AB36B207E1F710E0C8ECD0E0CA
:1001000004C02297FE010E948E08C23CD107C9F7A5
:100110000E94D8060C9492080C9400001092B5012D
:100120001092B40108954F925F926F927F928F92D6
:100130009F92AF92BF92CF92DF92EF92FF920F9376
:100140001F9328013901FC01C080D180E280F38037
:10015000CB01BA010E9479079B01AC01C701B6012E
:100160000E9407084B015C01A701960160E070E066
:1001700080E89FE30E94E8066B017C01C301B201A5
:100180000E9479079B01AC01C701B6010E940708D4
:100190009B01AC01C501B4010E94E9060E944D0714
:1001A0001F910F91FF90EF90DF90CF90BF90AF9095
:1001B0009F908F907F906F905F904F9008958AE905
:1001C00099E9A9E1BEE38093BA019093BB01A093A2
:1001D000BC01B093BD01089560E088E00E944D032A
:1001E00061E08AE00E944D0361E08BE00E944D03D4
:1001F00061E08CE00E944D0361E08DE00E944D03C0
:1002000060E08EE00E944D03EAE7F0E080818460C8
:10021000808380818D7F808380818E7F8083109218
:100220008000E1E8F0E080818460808380818D7FC0
:100230008083808181608083EFE6F0E0808181604F
:10024000808381EF9FEF909385008093840061E02D
:100250008AE00E94860361E08BE00E94860361E0F1
:100260008CE00E94860361E08DE00E94860326E018
:1002700040E052EC61E070E08EEC91E00E94C80436
:1002800067E071E08EEC91E00C941A068091BE015B
:10029000882361F160E08AE00E94860360E08BE0E1
:1002A0000E94860360E08CE00E94860360E08DE09F
:1002B0000E9486036EE571E080E090E00E94A40257
:1002C00061E08AE00E94860361E08BE00E94860381
:1002D00061E08CE00E94860361E08DE00E9486036D
:1002E0006EE571E080E090E00C94A40208951F9206
:1002F0000F920FB60F921124CF92DF92EF92FF92DE
:100300000F931F932F933F934F935F936F937F931D
:100310008F939F93AF93BF93EF93FF9381EF9FEFE3
:10032000909385008093840088E00E94BC03892B11
:1003300009F06CC0C090C301D090C401EE24D7FC7A
:10034000E094FE2C8EE00E940703AC01662757FD67
:100350006095762F970186018AEB91E00E949300C9
:100360007093C4016093C3016FE071E08EEC91E083
:100370000E940D066091C3017091C4014AE050E0F3
:100380008EEC91E00E94CF0661E171E08EEC91E08D
:100390000E941A062091C3013091C401809104018A
:1003A000909105018217930774F48091C101909197
:1003B000C20101969093C2018093C1011092C001C5
:1003C0001092BF0109C08091BF019091C0010196B8
:1003D0009093C0018093BF012091C1013091C2016F
:1003E0008091020190910301821793074CF52091AF
:1003F000BF013091C00180910001909101018217ED
:100400009307F4F481E08093BE011AC01092C201F8
:100410001092C1011092C0011092BF011092BE0152
:1004200061E08AE00E94860361E08BE00E9486031F
:1004300061E08CE00E94860361E08DE00E9486030B
:10044000FF91EF91BF91AF919F918F917F916F91AC
:100450005F914F913F912F911F910F91FF90EF90DE
:10046000DF90CF900F900FBE0F901F9018951F92A6
:100470000F920FB60F9211242F933F938F939F9358
:10048000AF93BF938091C6019091C701A091C8011D
:10049000B091C9013091C50123E0230F2D3720F41D
:1004A0000196A11DB11D05C026E8230F0296A11DCE
:1004B000B11D2093C5018093C6019093C701A093FD
:1004C000C801B093C9018091CA019091CB01A0915C
:1004D000CC01B091CD010196A11DB11D8093CA013F
:1004E0009093CB01A093CC01B093CD01BF91AF917C
:1004F0009F918F913F912F910F900FBE0F901F9062
:1005000018953FB7F8948091CA019091CB01A091C2
:10051000CC01B091CD0126B5A89B05C02F3F19F0A5
:100520000196A11DB11D3FBF6627782F892F9A2FF5
:10053000620F711D811D911D42E0660F771F881F9C
:10054000991F4A95D1F70895CF92DF92EF92FF92CB
:10055000CF93DF936B017C010E948102EB01C114F8
:10056000D104E104F10489F00E94E7060E948102AF
:100570006C1B7D0B683E734090F381E0C81AD10874
:10058000E108F108C851DC4FEACFDF91CF91FF902D
:10059000EF90DF90CF900895789484B5826084BD09
:1005A00084B5816084BD85B5826085BD85B5816077
:1005B00085BDEEE6F0E0808181608083E1E8F0E0D7
:1005C0001082808182608083808181608083E0E806
:1005D000F0E0808181608083E1EBF0E080818460E5
:1005E0008083E0EBF0E0808181608083EAE7F0E0E7
:1005F000808184608083808182608083808181604B
:1006000080838081806880831092C10008958E303D
:1006100008F08E5087702091060190E4299F900188
:100620001124822B80937C0080917A0080648093D7
:100630007A0080917A0086FDFCCF8091780020912D
:10064000790090E0922B0895833081F028F4813076
:1006500099F08230A1F008958730A9F08830B9F080
:100660008430D1F4809180008F7D03C08091800020
:100670008F7780938000089584B58F7702C084B50A
:100680008F7D84BD08958091B0008F7703C08091E5
:10069000B0008F7D8093B0000895CF93DF9390E0FA
:1006A000FC01E458FF4F2491FC01E057FF4F849177
:1006B000882349F190E0880F991FFC01E854FF4F0F
:1006C000A591B49182559F4FFC01C591D4919FB7DC
:1006D000611108C0F8948C91209582238C938881B5
:1006E00082230AC0623051F4F8948C91322F3095F5
:1006F00083238C938881822B888304C0F8948C9107
:10070000822B8C939FBFDF91CF9108950F931F93FE
:10071000CF93DF931F92CDB7DEB7282F30E0F901DA
:10072000E859FF4F8491F901E458FF4F1491F90102
:10073000E057FF4F04910023C9F0882321F069831B
:100740000E9424036981E02FF0E0EE0FFF1FE255C5
:10075000FF4FA591B4919FB7F8948C91611103C09C
:100760001095812301C0812B8C939FBF0F90DF9147
:10077000CF911F910F910895CF93DF93282F30E0F1
:10078000F901E859FF4F8491F901E458FF4FD491E2
:10079000F901E057FF4FC491CC2391F081110E94E1
:1007A0002403EC2FF0E0EE0FFF1FEC55FF4FA59157
:1007B000B4912C912D2381E090E021F480E002C0DF
:1007C00080E090E0DF91CF910895FC01818D228D32
:1007D00090E0805C9F4F821B91098F739927089549
:1007E000FC01918D828D981731F0828DE80FF11DFB
:1007F000858D90E008958FEF9FEF0895FC01918D16
:10080000828D981761F0828DDF01A80FB11D5D9672
:100810008C91928D9F5F9F73928F90E008958FEFE0
:100820009FEF089582E895E0892B49F080E090E001
:10083000892B29F00E94820581110C9400000895F3
:10084000FC01848DDF01A80FB11DA35ABF4F2C916D
:10085000848D90E001968F739927848FA689B7893C
:100860002C93A089B1898C9180648C93938D848D15
:10087000981306C00288F389E02D80818F7D8083E4
:100880000895CF93DF93EC01888D8823C9F0EA891E
:10089000FB89808185FD05C0A889B9898C9186FD79
:1008A0000FC00FB607FCF5CF808185FFF2CFA88976
:1008B000B9898C9185FFEDCFCE010E942004E7CF4E
:1008C000DF91CF910895CF92DF92FF920F931F9304
:1008D000CF93DF931F92CDB7DEB76C0181E0D601D5
:1008E00058968C9358975B969C915B975C968C91ED
:1008F0005C97981307C05096ED91FC9151978081B9
:1009000085FD2EC0F601038D10E00F5F1F4F0F73A2
:100910001127F02EF601848DF81211C00FB607FCD6
:10092000F9CFD6015096ED91FC915197808185FFCA
:10093000F1CFC60169830E9420046981EBCF838DCA
:10094000E80FF11DE35AFF4F6083D6015B960C93CD
:100950005B975296ED91FC915397808180620CC019
:10096000D6015696ED91FC91579760835096ED9184
:10097000FC91519780818064808381E090E00F90AA
:10098000DF91CF911F910F91FF90DF90CF9008954D
:10099000BF92CF92DF92EF92FF92CF93DF93EC0161
:1009A0006A017B01B22EE889F98982E080834115D2
:1009B00081EE580761057105A1F060E079E08DE3F3
:1009C00090E0A70196010E946A082150310941096F
:1009D00051095695479537952795211580E1380798
:1009E00098F0E889F989108260E874E88EE190E077
:1009F000A70196010E946A08215031094109510955
:100A00005695479537952795EC85FD853083EE857E
:100A1000FF852083188EEC89FD89B082EA89FB89E5
:100A2000808180618083EA89FB89808188608083FE
:100A3000EA89FB89808180688083EA89FB898081DB
:100A40008F7D8083DF91CF91FF90EF90DF90CF90EB
:100A5000BF9008951F920F920FB60F9211242F93FB
:100A60008F939F93EF93FF93E091DE01F091DF016D
:100A70008081E091E401F091E50182FD12C0908156
:100A80008091E7018F5F8F732091E801821751F009
:100A9000E091E701F0E0E253FE4F958F8093E7018C
:100AA00001C08081FF91EF919F918F912F910F90C5
:100AB0000FBE0F901F9018951F920F920FB60F92B6
:100AC00011242F933F934F935F936F937F938F9353
:100AD0009F93AF93BF93EF93FF938EEC91E00E94AF
:100AE0002004FF91EF91BF91AF919F918F917F91E2
:100AF0006F915F914F913F912F910F900FBE0F908B
:100B00001F9018958EEC91E00E94E50321E0892B5F
:100B100009F420E0822F08951092D1011092D001A3
:100B200088EE93E0A0E0B0E08093D2019093D301EF
:100B3000A093D401B093D50187E191E09093CF01C8
:100B40008093CE0185EC90E09093DB018093DA01F5
:100B500084EC90E09093DD018093DC0180EC90E0E8
:100B60009093DF018093DE0181EC90E09093E101AE
:100B70008093E00182EC90E09093E3018093E201A6
:100B800086EC90E09093E5018093E4011092E701F8
:100B90001092E8011092E9011092EA010895CF92B3
:100BA000DF92EF92FF920F931F93CF93DF937C011D
:100BB0006A01EB0100E010E00C151D0571F0699170
:100BC000D701ED91FC910190F081E02DC7010995CD
:100BD000892B19F00F5F1F4FEFCFC801DF91CF9125
:100BE0001F910F91FF90EF90DF90CF9008956115C6
:100BF000710581F0DB010D900020E9F7AD01415056
:100C00005109461B570BDC01ED91FC910280F381E9
:100C1000E02D099480E090E008950C94F705DC0144
:100C2000ED91FC910190F081E02D099463E271E077
:100C30000C94F7050F931F93CF93DF93EC010E9461
:100C4000F7058C01CE010E941606800F911FDF91DF
:100C5000CF911F910F9108958F929F92AF92BF9263
:100C6000CF92DF92EF92FF920F931F93CF93DF9378
:100C7000CDB7DEB7A1970FB6F894DEBF0FBECDBFDC
:100C80007C01C42EE52FCB01D22E19A221E02D1517
:100C900010F02AE0D22E8E010F5D1F4F8D2C912C6B
:100CA000A12CB12C6C2D7E2FA50194010E946A0805
:100CB0008C2DD29E80191124015011098A3014F410
:100CC000805D01C0895CF8018083211531054105F3
:100CD000510521F0C22EE32FCA01E4CFB801C701AC
:100CE0000E94F705A1960FB6F894DEBF0FBECDBFE8
:100CF000DF91CF911F910F91FF90EF90DF90CF90F8
:100D0000BF90AF909F908F900895CF92DF92EF9217
:100D1000FF920F931F93CF93DF93EC016A017B0146
:100D20002115310579F4E881F9810190F081E02DF8
:100D3000642FDF91CF911F910F91FF90EF90DF9083
:100D4000CF9009942A303105E9F477FF1AC06DE29B
:100D50000E940F068C0144275527BA014C195D09E2
:100D60006E097F092AE0CE010E942C06800F911F98
:100D7000DF91CF911F910F91FF90EF90DF90CF9077
:100D800008952AE0B701A601CE01DF91CF911F910E
:100D90000F91FF90EF90DF90CF900C942C069A016A
:100DA000AB01662757FD6095762F0C948506089554
:100DB0000E94CC020E94D7060E94EC00C2E1D4E05F
:100DC0000E9446012097E1F30E941204F9CF089592
:100DD0005058BB27AA270ED0E0C0D1D030F0D6D0D3
:100DE00020F031F49F3F11F41EF4C6C00EF4E095DC
:100DF000E7FBBCC0E92FE2D080F3BA1762077307A4
:100E00008407950718F071F49EF5FAC00EF4E0958A
:100E10000B2EBA2FA02D0B01B90190010C01CA01B4
:100E2000A0011124FF27591B99F0593F50F4503E5F
:100E300068F11A16F040A22F232F342F4427585F51
:100E4000F3CF469537952795A795F0405395C9F769
:100E50007EF41F16BA0B620B730B840BBAF0915021
:100E6000A1F0FF0FBB1F661F771F881FC2F70EC0C0
:100E7000BA0F621F731F841F48F487957795679593
:100E8000B795F7959E3F08F0B3CF9395880F08F07C
:100E90009927EE0F97958795089598D088F09F57DA
:100EA00090F0B92F9927B751A0F0D1F0660F771FB6
:100EB000881F991F1AF0BA95C9F712C0B13081F096
:100EC0009FD0B1E008959CC0672F782F8827B85F26
:100ED00039F0B93FCCF3869577956795B395D9F7F7
:100EE0003EF490958095709561957F4F8F4F9F4F01
:100EF0000895E89409C097FB3EF49095809570950D
:100F000061957F4F8F4F9F4F9923A9F0F92F96E955
:100F1000BB279395F695879577956795B795F111CA
:100F2000F8CFFAF4BB0F11F460FF1BC06F5F7F4F67
:100F30008F4F9F4F16C0882311F096E911C0772379
:100F400021F09EE8872F762F05C0662371F096E882
:100F5000862F70E060E02AF09A95660F771F881F51
:100F6000DAF7880F9695879597F9089597F99F670F
:100F700080E870E060E008959FEF80EC0895002421
:100F80000A941616170618060906089500240A94EE
:100F900012161306140605060895092E0394000C74
:100FA00011F4882352F0BB0F40F4BF2B11F460FF03
:100FB00004C06F5F7F4F8F4F9F4F089557FD90582C
:100FC000440F551F59F05F3F71F04795880F97FB0D
:100FD000991F61F09F3F79F08795089512161306C7
:100FE0001406551FF2CF4695F1DF08C016161706F6
:100FF0001806991FF1CF869571056105089408952B
:10100000E894BB2766277727CB0197F908950BD083
:10101000C4CFB5DF28F0BADF18F0952309F0A6CFCA
:10102000ABCF1124EECFCADFA0F3959FD1F3950F7C
:1010300050E0551F629FF001729FBB27F00DB11D5C
:10104000639FAA27F00DB11DAA1F649F6627B00DEC
:10105000A11D661F829F2227B00DA11D621F739FD5
:10106000B00DA11D621F839FA00D611D221F749FE3
:101070003327A00D611D231F849F600D211D822F2A
:10108000762F6A2F11249F5750408AF0E1F0882371
:101090004AF0EE0FFF1FBB1F661F771F881F91507E
:1010A0005040A9F79E3F510570F060CFAACF5F3F37
:1010B000ECF3983EDCF3869577956795B795F795B1
:1010C000E7959F5FC1F7FE2B880F911D9695879539
:1010D00097F90895A1E21A2EAA1BBB1BFD010DC0B2
:1010E000AA1FBB1FEE1FFF1FA217B307E407F507D8
:1010F00020F0A21BB30BE40BF50B661F771F881FB4
:10110000991F1A9469F760957095809590959B0149
:10111000AC01BD01CF010895EE0FFF1F0590F491C2
:08112000E02D0994F894FFCFC3
:101128003200320026020120535441525420002438
:10113800003B00000000006304CF05E503FE03F058
:101148000341040D0A006E616E00696E66006F76D9
:0411580066002E00FF
:00000001FF
